{
  "contractName": "AIModelMarketplace",
  "abi": [
    {
      "inputs": [],
      "stateMutability": "nonpayable",
      "type": "constructor"
    },
    {
      "inputs": [
        {
          "internalType": "uint256",
          "name": "",
          "type": "uint256"
        },
        {
          "internalType": "address",
          "name": "",
          "type": "address"
        }
      ],
      "name": "hasPurchased",
      "outputs": [
        {
          "internalType": "bool",
          "name": "",
          "type": "bool"
        }
      ],
      "stateMutability": "view",
      "type": "function",
      "constant": true
    },
    {
      "inputs": [],
      "name": "modelIdCounter",
      "outputs": [
        {
          "internalType": "uint256",
          "name": "",
          "type": "uint256"
        }
      ],
      "stateMutability": "view",
      "type": "function",
      "constant": true
    },
    {
      "inputs": [
        {
          "internalType": "uint256",
          "name": "",
          "type": "uint256"
        }
      ],
      "name": "models",
      "outputs": [
        {
          "internalType": "string",
          "name": "name",
          "type": "string"
        },
        {
          "internalType": "string",
          "name": "description",
          "type": "string"
        },
        {
          "internalType": "uint256",
          "name": "price",
          "type": "uint256"
        },
        {
          "internalType": "address payable",
          "name": "creator",
          "type": "address"
        },
        {
          "internalType": "uint256",
          "name": "ratingCount",
          "type": "uint256"
        },
        {
          "internalType": "uint256",
          "name": "ratingSum",
          "type": "uint256"
        }
      ],
      "stateMutability": "view",
      "type": "function",
      "constant": true
    },
    {
      "inputs": [],
      "name": "owner",
      "outputs": [
        {
          "internalType": "address",
          "name": "",
          "type": "address"
        }
      ],
      "stateMutability": "view",
      "type": "function",
      "constant": true
    },
    {
      "inputs": [
        {
          "internalType": "string",
          "name": "name",
          "type": "string"
        },
        {
          "internalType": "string",
          "name": "description",
          "type": "string"
        },
        {
          "internalType": "uint256",
          "name": "price",
          "type": "uint256"
        }
      ],
      "name": "listModel",
      "outputs": [],
      "stateMutability": "nonpayable",
      "type": "function"
    },
    {
      "inputs": [
        {
          "internalType": "uint256",
          "name": "modelId",
          "type": "uint256"
        }
      ],
      "name": "purchaseModel",
      "outputs": [],
      "stateMutability": "payable",
      "type": "function",
      "payable": true
    },
    {
      "inputs": [
        {
          "internalType": "uint256",
          "name": "modelId",
          "type": "uint256"
        },
        {
          "internalType": "uint8",
          "name": "rating",
          "type": "uint8"
        }
      ],
      "name": "rateModel",
      "outputs": [],
      "stateMutability": "nonpayable",
      "type": "function"
    },
    {
      "inputs": [],
      "name": "withdrawFunds",
      "outputs": [],
      "stateMutability": "nonpayable",
      "type": "function"
    },
    {
      "inputs": [
        {
          "internalType": "uint256",
          "name": "modelId",
          "type": "uint256"
        }
      ],
      "name": "getModelDetails",
      "outputs": [
        {
          "internalType": "string",
          "name": "name",
          "type": "string"
        },
        {
          "internalType": "string",
          "name": "description",
          "type": "string"
        },
        {
          "internalType": "uint256",
          "name": "price",
          "type": "uint256"
        },
        {
          "internalType": "address",
          "name": "creator",
          "type": "address"
        },
        {
          "internalType": "uint256",
          "name": "averageRating",
          "type": "uint256"
        }
      ],
      "stateMutability": "view",
      "type": "function",
      "constant": true
    }
  ],
  "bytecode": "0x608060405234801561000f575f80fd5b503360035f6101000a81548173ffffffffffffffffffffffffffffffffffffffff021916908373ffffffffffffffffffffffffffffffffffffffff1602179055506117618061005d5f395ff3fe608060405260043610610085575f3560e01c80636a030ca9116100585780636a030ca91461012f5780638da5cb5b14610170578063956519be1461019a578063dc746862146101c4578063dc9da2f8146101e057610085565b806312ee1c0e146100895780631c788a9a146100b157806324600fc3146100d957806331fc042f146100ef575b5f80fd5b348015610094575f80fd5b506100af60048036038101906100aa9190610cb8565b61021c565b005b3480156100bc575f80fd5b506100d760048036038101906100d29190610d76565b61035f565b005b3480156100e4575f80fd5b506100ed61049d565b005b3480156100fa575f80fd5b5061011560048036038101906101109190610db4565b610593565b604051610126959493929190610ea7565b60405180910390f35b34801561013a575f80fd5b5061015560048036038101906101509190610db4565b61072e565b60405161016796959493929190610f26565b60405180910390f35b34801561017b575f80fd5b50610184610891565b6040516101919190610f93565b60405180910390f35b3480156101a5575f80fd5b506101ae6108b6565b6040516101bb9190610fac565b60405180910390f35b6101de60048036038101906101d99190610db4565b6108bb565b005b3480156101eb575f80fd5b5061020660048036038101906102019190610fef565b610b0e565b6040516102139190611047565b60405180910390f35b5f811161025e576040517f08c379a0000000000000000000000000000000000000000000000000000000008152600401610255906110aa565b60405180910390fd5b6040518060c001604052808481526020018381526020018281526020013373ffffffffffffffffffffffffffffffffffffffff1681526020015f81526020015f81525060015f805481526020019081526020015f205f820151815f0190816102c691906112c2565b5060208201518160010190816102dc91906112c2565b50604082015181600201556060820151816003015f6101000a81548173ffffffffffffffffffffffffffffffffffffffff021916908373ffffffffffffffffffffffffffffffffffffffff1602179055506080820151816004015560a082015181600501559050505f80815480929190610355906113be565b9190505550505050565b60018160ff1610158015610377575060058160ff1611155b6103b6576040517f08c379a00000000000000000000000000000000000000000000000000000000081526004016103ad9061144f565b60405180910390fd5b60025f8381526020019081526020015f205f3373ffffffffffffffffffffffffffffffffffffffff1673ffffffffffffffffffffffffffffffffffffffff1681526020019081526020015f205f9054906101000a900460ff1661044e576040517f08c379a0000000000000000000000000000000000000000000000000000000008152600401610445906114b7565b60405180910390fd5b5f60015f8481526020019081526020015f209050806004015f815480929190610476906113be565b91905055508160ff16816005015f82825461049191906114d5565b92505081905550505050565b60035f9054906101000a900473ffffffffffffffffffffffffffffffffffffffff1673ffffffffffffffffffffffffffffffffffffffff163373ffffffffffffffffffffffffffffffffffffffff161461052c576040517f08c379a000000000000000000000000000000000000000000000000000000000815260040161052390611552565b60405180910390fd5b60035f9054906101000a900473ffffffffffffffffffffffffffffffffffffffff1673ffffffffffffffffffffffffffffffffffffffff166108fc4790811502906040515f60405180830381858888f19350505050158015610590573d5f803e3d5ffd5b50565b6060805f805f8060015f8881526020019081526020015f2090505f8160040154116105be575f6105d3565b806004015481600501546105d2919061159d565b5b9150805f01816001018260020154836003015f9054906101000a900473ffffffffffffffffffffffffffffffffffffffff1685848054610612906110f5565b80601f016020809104026020016040519081016040528092919081815260200182805461063e906110f5565b80156106895780601f1061066057610100808354040283529160200191610689565b820191905f5260205f20905b81548152906001019060200180831161066c57829003601f168201915b5050505050945083805461069c906110f5565b80601f01602080910402602001604051908101604052809291908181526020018280546106c8906110f5565b80156107135780601f106106ea57610100808354040283529160200191610713565b820191905f5260205f20905b8154815290600101906020018083116106f657829003601f168201915b50505050509350955095509550955095505091939590929450565b6001602052805f5260405f205f91509050805f01805461074d906110f5565b80601f0160208091040260200160405190810160405280929190818152602001828054610779906110f5565b80156107c45780601f1061079b576101008083540402835291602001916107c4565b820191905f5260205f20905b8154815290600101906020018083116107a757829003601f168201915b5050505050908060010180546107d9906110f5565b80601f0160208091040260200160405190810160405280929190818152602001828054610805906110f5565b80156108505780601f1061082757610100808354040283529160200191610850565b820191905f5260205f20905b81548152906001019060200180831161083357829003601f168201915b505050505090806002015490806003015f9054906101000a900473ffffffffffffffffffffffffffffffffffffffff16908060040154908060050154905086565b60035f9054906101000a900473ffffffffffffffffffffffffffffffffffffffff1681565b5f5481565b5f60015f8381526020019081526020015f20905080600201543414610915576040517f08c379a000000000000000000000000000000000000000000000000000000000815260040161090c90611617565b60405180910390fd5b806003015f9054906101000a900473ffffffffffffffffffffffffffffffffffffffff1673ffffffffffffffffffffffffffffffffffffffff163373ffffffffffffffffffffffffffffffffffffffff16036109a6576040517f08c379a000000000000000000000000000000000000000000000000000000000815260040161099d906116a5565b60405180910390fd5b60025f8381526020019081526020015f205f3373ffffffffffffffffffffffffffffffffffffffff1673ffffffffffffffffffffffffffffffffffffffff1681526020019081526020015f205f9054906101000a900460ff1615610a3f576040517f08c379a0000000000000000000000000000000000000000000000000000000008152600401610a369061170d565b60405180910390fd5b806003015f9054906101000a900473ffffffffffffffffffffffffffffffffffffffff1673ffffffffffffffffffffffffffffffffffffffff166108fc3490811502906040515f60405180830381858888f19350505050158015610aa5573d5f803e3d5ffd5b50600160025f8481526020019081526020015f205f3373ffffffffffffffffffffffffffffffffffffffff1673ffffffffffffffffffffffffffffffffffffffff1681526020019081526020015f205f6101000a81548160ff0219169083151502179055505050565b6002602052815f5260405f20602052805f5260405f205f915091509054906101000a900460ff1681565b5f604051905090565b5f80fd5b5f80fd5b5f80fd5b5f80fd5b5f601f19601f8301169050919050565b7f4e487b71000000000000000000000000000000000000000000000000000000005f52604160045260245ffd5b610b9782610b51565b810181811067ffffffffffffffff82111715610bb657610bb5610b61565b5b80604052505050565b5f610bc8610b38565b9050610bd48282610b8e565b919050565b5f67ffffffffffffffff821115610bf357610bf2610b61565b5b610bfc82610b51565b9050602081019050919050565b828183375f83830152505050565b5f610c29610c2484610bd9565b610bbf565b905082815260208101848484011115610c4557610c44610b4d565b5b610c50848285610c09565b509392505050565b5f82601f830112610c6c57610c6b610b49565b5b8135610c7c848260208601610c17565b91505092915050565b5f819050919050565b610c9781610c85565b8114610ca1575f80fd5b50565b5f81359050610cb281610c8e565b92915050565b5f805f60608486031215610ccf57610cce610b41565b5b5f84013567ffffffffffffffff811115610cec57610ceb610b45565b5b610cf886828701610c58565b935050602084013567ffffffffffffffff811115610d1957610d18610b45565b5b610d2586828701610c58565b9250506040610d3686828701610ca4565b9150509250925092565b5f60ff82169050919050565b610d5581610d40565b8114610d5f575f80fd5b50565b5f81359050610d7081610d4c565b92915050565b5f8060408385031215610d8c57610d8b610b41565b5b5f610d9985828601610ca4565b9250506020610daa85828601610d62565b9150509250929050565b5f60208284031215610dc957610dc8610b41565b5b5f610dd684828501610ca4565b91505092915050565b5f81519050919050565b5f82825260208201905092915050565b5f5b83811015610e16578082015181840152602081019050610dfb565b5f8484015250505050565b5f610e2b82610ddf565b610e358185610de9565b9350610e45818560208601610df9565b610e4e81610b51565b840191505092915050565b610e6281610c85565b82525050565b5f73ffffffffffffffffffffffffffffffffffffffff82169050919050565b5f610e9182610e68565b9050919050565b610ea181610e87565b82525050565b5f60a0820190508181035f830152610ebf8188610e21565b90508181036020830152610ed38187610e21565b9050610ee26040830186610e59565b610eef6060830185610e98565b610efc6080830184610e59565b9695505050505050565b5f610f1082610e68565b9050919050565b610f2081610f06565b82525050565b5f60c0820190508181035f830152610f3e8189610e21565b90508181036020830152610f528188610e21565b9050610f616040830187610e59565b610f6e6060830186610f17565b610f7b6080830185610e59565b610f8860a0830184610e59565b979650505050505050565b5f602082019050610fa65f830184610e98565b92915050565b5f602082019050610fbf5f830184610e59565b92915050565b610fce81610e87565b8114610fd8575f80fd5b50565b5f81359050610fe981610fc5565b92915050565b5f806040838503121561100557611004610b41565b5b5f61101285828601610ca4565b925050602061102385828601610fdb565b9150509250929050565b5f8115159050919050565b6110418161102d565b82525050565b5f60208201905061105a5f830184611038565b92915050565b7f5072696365206d7573742062652067726561746572207468616e207a65726f005f82015250565b5f611094601f83610de9565b915061109f82611060565b602082019050919050565b5f6020820190508181035f8301526110c181611088565b9050919050565b7f4e487b71000000000000000000000000000000000000000000000000000000005f52602260045260245ffd5b5f600282049050600182168061110c57607f821691505b60208210810361111f5761111e6110c8565b5b50919050565b5f819050815f5260205f209050919050565b5f6020601f8301049050919050565b5f82821b905092915050565b5f600883026111817fffffffffffffffffffffffffffffffffffffffffffffffffffffffffffffffff82611146565b61118b8683611146565b95508019841693508086168417925050509392505050565b5f819050919050565b5f6111c66111c16111bc84610c85565b6111a3565b610c85565b9050919050565b5f819050919050565b6111df836111ac565b6111f36111eb826111cd565b848454611152565b825550505050565b5f90565b6112076111fb565b6112128184846111d6565b505050565b5b818110156112355761122a5f826111ff565b600181019050611218565b5050565b601f82111561127a5761124b81611125565b61125484611137565b81016020851015611263578190505b61127761126f85611137565b830182611217565b50505b505050565b5f82821c905092915050565b5f61129a5f198460080261127f565b1980831691505092915050565b5f6112b2838361128b565b9150826002028217905092915050565b6112cb82610ddf565b67ffffffffffffffff8111156112e4576112e3610b61565b5b6112ee82546110f5565b6112f9828285611239565b5f60209050601f83116001811461132a575f8415611318578287015190505b61132285826112a7565b865550611389565b601f19841661133886611125565b5f5b8281101561135f5784890151825560018201915060208501945060208101905061133a565b8683101561137c5784890151611378601f89168261128b565b8355505b6001600288020188555050505b505050505050565b7f4e487b71000000000000000000000000000000000000000000000000000000005f52601160045260245ffd5b5f6113c882610c85565b91507fffffffffffffffffffffffffffffffffffffffffffffffffffffffffffffffff82036113fa576113f9611391565b5b600182019050919050565b7f496e76616c696420726174696e670000000000000000000000000000000000005f82015250565b5f611439600e83610de9565b915061144482611405565b602082019050919050565b5f6020820190508181035f8301526114668161142d565b9050919050565b7f4d75737420707572636861736520746f207261746500000000000000000000005f82015250565b5f6114a1601583610de9565b91506114ac8261146d565b602082019050919050565b5f6020820190508181035f8301526114ce81611495565b9050919050565b5f6114df82610c85565b91506114ea83610c85565b925082820190508082111561150257611501611391565b5b92915050565b7f4e6f7420636f6e7472616374206f776e657200000000000000000000000000005f82015250565b5f61153c601283610de9565b915061154782611508565b602082019050919050565b5f6020820190508181035f83015261156981611530565b9050919050565b7f4e487b71000000000000000000000000000000000000000000000000000000005f52601260045260245ffd5b5f6115a782610c85565b91506115b283610c85565b9250826115c2576115c1611570565b5b828204905092915050565b7f496e636f7272656374207061796d656e740000000000000000000000000000005f82015250565b5f611601601183610de9565b915061160c826115cd565b602082019050919050565b5f6020820190508181035f83015261162e816115f5565b9050919050565b7f43726561746f722063616e6e6f74207075726368617365206f776e206d6f64655f8201527f6c00000000000000000000000000000000000000000000000000000000000000602082015250565b5f61168f602183610de9565b915061169a82611635565b604082019050919050565b5f6020820190508181035f8301526116bc81611683565b9050919050565b7f416c7265616479207075726368617365640000000000000000000000000000005f82015250565b5f6116f7601183610de9565b9150611702826116c3565b602082019050919050565b5f6020820190508181035f830152611724816116eb565b905091905056fea2646970667358221220670e2bd0383a3f50343c77e785ed88017dfe1ba0935f75e3989b4149e246805d64736f6c63430008140033",
  "immutableReferences": {},
  "source": " // SPDX-License-Identifier: MIT\r\npragma solidity ^0.8.0;\r\n\r\ncontract AIModelMarketplace {\r\n    struct Model {\r\n        string name;\r\n        string description;\r\n        uint256 price;\r\n        address payable creator;\r\n        uint256 ratingCount;\r\n        uint256 ratingSum;\r\n    }\r\n\r\n    uint256 public modelIdCounter;\r\n    mapping(uint256 => Model) public models;\r\n    mapping(uint256 => mapping(address => bool)) public hasPurchased;\r\n\r\n    address public owner;\r\n\r\n    constructor() {\r\n        owner = msg.sender;\r\n    }\r\n\r\n    modifier onlyOwner() {\r\n        require(msg.sender == owner, \"Not contract owner\");\r\n        _;\r\n    }\r\n\r\n    function listModel(\r\n        string memory name,\r\n        string memory description,\r\n        uint256 price\r\n    ) external {\r\n        require(price > 0, \"Price must be greater than zero\");\r\n\r\n        models[modelIdCounter] = Model(\r\n            name,\r\n            description,\r\n            price,\r\n            payable(msg.sender),\r\n            0,\r\n            0\r\n        );\r\n        modelIdCounter++;\r\n    }\r\n\r\n    function purchaseModel(uint256 modelId) external payable {\r\n        Model storage model = models[modelId];\r\n        require(msg.value == model.price, \"Incorrect payment\");\r\n        require(msg.sender != model.creator, \"Creator cannot purchase own model\");\r\n        require(!hasPurchased[modelId][msg.sender], \"Already purchased\");\r\n\r\n        model.creator.transfer(msg.value);\r\n        hasPurchased[modelId][msg.sender] = true;\r\n    }\r\n\r\n    function rateModel(uint256 modelId, uint8 rating) external {\r\n        require(rating >= 1 && rating <= 5, \"Invalid rating\");\r\n        require(hasPurchased[modelId][msg.sender], \"Must purchase to rate\");\r\n\r\n        Model storage model = models[modelId];\r\n        model.ratingCount++;\r\n        model.ratingSum += rating;\r\n    }\r\n\r\n    function withdrawFunds() external onlyOwner {\r\n        payable(owner).transfer(address(this).balance);\r\n    }\r\n\r\n    function getModelDetails(uint256 modelId)\r\n    external\r\n    view\r\n    returns (\r\n        string memory name,\r\n        string memory description,\r\n        uint256 price,\r\n        address creator,\r\n        uint256 averageRating\r\n    )\r\n{\r\n    Model storage model = models[modelId];\r\n    averageRating = model.ratingCount > 0\r\n        ? model.ratingSum / model.ratingCount\r\n        : 0;\r\n    return (model.name, model.description, model.price, model.creator, averageRating);\r\n}\r\n\r\n}\r\n",
  "sourcePath": "C:\\Users\\Dias\\Desktop\\ai-model-marketplace\\contracts\\AIModelMarketplace.sol",
  "compiler": {
    "name": "solc",
    "version": "0.8.20+commit.a1b79de6.Emscripten.clang"
  },
  "schemaVersion": "3.4.16",
  "updatedAt": "2025-01-05T11:56:36.857Z",
  "networkType": "ethereum",
  "devdoc": {
    "kind": "dev",
    "methods": {},
    "version": 1
  },
  "userdoc": {
    "kind": "user",
    "methods": {},
    "version": 1
  }
}